:100000000C94C4010C94E1010C94E1010C94E10105
:100010000C94E1010C94E1010C94E1010C94E101D8
:100020000C94E1010C94E1010C9488200C945C2167
:100030000C94BB1A0C94E1010C94E1010C94E101C5
:100040000C94E1010C94E1010C94E1010C94E101A8
:100050000C94E1010C94421B0C94E1010C94E1011D
:100060000C94E1010C94E1010C94E1010C94E10188
:100070000C94E1010C94E1010C94E1010C94E10178
:100080000C94E1010C94E1010C94E1010C94E10168
:100090000C94E1010C94E1010C94E1010C94E10158
:1000A0000C94E1010C94E1010C94E1010000590071
:1000B0005A005B0000005C005D005E0001515F00C3
:1000C000600061000000620000002C0000000100E0
:1000D0000100010000000100010001000100010019
:1000E000010001000000010000000100000001000B
:1000F00001000100000001000100010001000100F9
:1001000001000100000001000000010000000100EA
:1001100001000100000001000100010001000100D8
:1001200001000100000001000000010000000000CB
:10013000000000002A2B2800000000000000000042
:100140000000000000000029000000002C1E3420E8
:10015000212224342627252E362D3738271E1F200E
:100160002122232425263333362E37381F04050653
:100170000708090A0B0C0D0E0F1011121314151697
:100180001718191A1B1C1D2F3130232D3504050695
:100190000708090A0B0C0D0E0F1011121314151677
:1001A0001718191A1B1C1D2F3130354C0000000088
:1001B000000000000000000000000000000000003F
:1001C000000000000000000000000000000000002F
:1001D0007E0F00D4FFFFFFC70000007812037300FA
:1001E0007500730062006F0061007200640000001F
:1001F0000C03740069006D0061006C0000000403D2
:10020000090409025B00030100A0FA0904000001CF
:1002100003010100092111010001224000070581AD
:100220000308000109040100020300000009211174
:1002300001000122220007058203200001070503B7
:10024000032000010904020001030000000921113C
:1002500001000122B60007058403200001120100FD
:100260000200000008EDFE616001000102000106CD
:1002700060FF0961A1010962150026FF0095207544
:100280000881020963150026FF0095207508910278
:10029000C005010902A10185020901A10005091992
:1002A000012908150025019508750181020501093C
:1002B0003009311581257F950275088106093815A9
:1002C00081257F950175088106050C0A3802158184
:1002D000257F950175088106C0C005010980A1012F
:1002E000850319012AB700150126B700950175107D
:1002F0008100C0050C0901A101850419012AA00291
:10030000150126A002950175108100C0050109069E
:10031000A1018506050719E029E7150025019508C3
:10032000750181020507190029EF1500250195F0D7
:1003300075018102050819012905950575019102CC
:10034000950175039101C005010906A10105071971
:10035000E029E715002501950875018102950175D1
:100360000881010507190029FF150026FF009506E1
:100370007508810005081901290595057501910287
:10038000950175039101C00011241FBECFEFDAE083
:10039000DEBFCDBF11E0A0E0B1E0E4EEF7E402C0C3
:1003A00005900D92A039B107D9F722E0A0E9B1E09C
:1003B00001C01D92A738B207E1F70E94C0100C944B
:1003C000C7230C94000084E0089581E0089581E043
:1003D00008950E94E701089508950E94EC01089590
:1003E000A5E0B0E0E6EFF1E00C94332349835A83B3
:1003F0003091970189819A81311119C0662399F052
:10040000222389F00E94DE07182F682F89819A81A4
:100410000E94BB0769817A81812F0E94A7172596C8
:10042000E3E00C944F230E94CC07182FF3CF0E94D7
:10043000DE0769817A81F1CFFC01262F408151814D
:100440006281738184810E94F001089581E00895A2
:10045000CF93DF93EC0160E00E941C02BE010E947A
:10046000ED01DF91CF910895E1E0F0E0DF0102C0FE
:10047000AA0FBB1F6A95E2F7BD01DF0102C0AA0FF8
:10048000BB1F4A95E2F76A2B01C0EE0F2A95EAF7E7
:10049000962F9823961302C08E2B0895E0958E23F5
:1004A0000895242F462F682F80919E010E943402C8
:1004B0000E941B0708950E94770F08950E947B0FEA
:1004C000089508950E94AD060E9461022FEF84E313
:1004D0009CE0215080409040E1F700C0000008956A
:1004E0000E9462020E94661B08950E9462020E949E
:1004F000771B08950F931F93CF93DF938C0161E0D7
:100500000E941C02EC01B8010E94B613811106C0C2
:1005100080E0DF91CF911F910F910895B801CE0136
:100520000E94E9018823A1F3B801CE010E94ED18D1
:10053000882371F3B801CE010E94A514882341F3EA
:10054000B801CE010E945F18882311F3F80182815F
:10055000882361F0CA35FDE5DF0701F158F4C115C4
:10056000ECE5DE0791F0CE3DDC4591F0C8010E943C
:10057000E501CFCFCC358DE5D80769F090F0C73ACB
:10058000DD45A1F70E947502C3CF0E947002C0CF63
:100590000E94970CF7CF0E94D10BE8CF0E94DB0B93
:1005A000E5CF0E94DF0BE2CF0E94981A0E94F10271
:1005B00008950E94F5020E949D1A089508950E94D0
:1005C000DE02089581E008950E94E20208950895F0
:1005D000CF93C82F0E94DF028C2F0E94E402CF919C
:1005E000089580E00E94E80208950E9449190E943F
:1005F000E8020895CF930E944919C82F8091920173
:100600008C1779F0C09392010E94271B609393018D
:100610007093940180939501909396018C2F0E9482
:10062000E802CF910895ABE0B0E0E9E1F3E00C948B
:1006300034234F83588769877A878B8761110E949B
:100640001C0B1E821D8285E0FE013796DE0111968D
:1006500001900D928A95E1F78C819D81892B61F43F
:1006600049815A816B817C818D819E810E94450ADE
:100670002B96E2E00C94502389819A8189238F3F45
:1006800079F3CE0101960E9426028111E9CFF0CFC5
:10069000FC01808191810E940B080895CF93C82F9F
:1006A0008823C9F08238C9F40E94491981FD13C01A
:1006B00089E30E94D40A0E943D0B2FEF87EE93E05E
:1006C000215080409040E1F700C0000089E30E9483
:1006D000DC0A0E943D0BCF9108958338A1F40E945B
:1006E000491980FDF8CF83E50E94D40A0E943D0B92
:1006F0002FEF81EE94E0215080409040E1F700C060
:10070000000083E5E4CF8438A1F40E94491982FDFA
:10071000E2CF87E40E94D40A0E943D0B2FEF81EEC6
:1007200094E0215080409040E1F700C0000087E451
:10073000CECF8CEF8C0F813A90F46C2F809100011A
:10074000909101010E94BE19882329F08C2F0E94EC
:10075000DC0A0E943D0B8C2F0E94D40ABACF80E2A3
:100760008C0F883048F4C77081E001C0880FCA95AB
:10077000EAF70E94FF0AADCFEBE5EC0FE33040F45F
:10078000F0E0EB5BFE4F808190E00E947E19A3CFEA
:10079000E8E5EC0FE73150F4F0E0EE0FFF1FE95E03
:1007A000FE4F808191810E94941995CFC03F08F43B
:1007B00092CF8C2F0E9444110E9417128CCF882355
:1007C00009F455C0823879F40E94491981FF4FC05D
:1007D00089E30E94D40A0E943D0B89E30E94DC0A4F
:1007E0000E943D0B0895833859F40E94491980FFF7
:1007F0003EC083E50E94D40A0E943D0B83E5EECF04
:10080000843859F40E94491982FF31C087E40E945C
:10081000D40A0E943D0B87E4E1CF9CEF980F913AF8
:10082000E8F290E2980F983050F4877091E001C0A0
:10083000990F8A95EAF7892F0E94050BD1CF9BE586
:10084000980F933028F490E080E00E947E1908957C
:1008500098E5980F973128F490E080E00E94941971
:100860000895803F20F00E949E110E941712089563
:100870001F93CF93DF93182FEB010E944E03209715
:1008800039F4812F0E94DF03DF91CF911F910895EA
:100890008FE99FE00197F1F700C000002197EFCFAB
:1008A00070E060E0893311F460E570E00E94380484
:1008B0000895882321F00E94FF0A0E943D0B0895AD
:1008C000882321F00E94050B0E943D0B0895B0E0A3
:1008D000A0E0EDE6F4E00C942D236C01D62FC72F99
:1008E000FC011281F580F2949FE0F9220E94F50A42
:1008F000E82E8823B9F0E12E1123A1F08C2F807F00
:10090000803421F080E28D0F8830D0F080916D022C
:1009100082FF16C082E00E94A00B0E94F50A91E0BF
:10092000E82EE926BC2EB2948FE0B822FBE0FB153E
:1009300008F468C0EB2DF0E0E753FC4D0C9417234E
:10094000E12CF0CF0C2F0F70C07F11F00295007FCB
:10095000112399F0002359F080E28D0F883010F0B8
:10096000D11107C0802F0E94FF0A0E943D0B8D2FDE
:1009700041C0802F0E940F0BF8CF8D2F0E94DF0304
:10098000002309F43FC080E28D0F883010F0D111B0
:1009900004C0802F0E94050B03C0802F0E94150BFE
:1009A0000E943D0B2FC00C2F0F70C07FC03211F082
:1009B0000295007FDD2381F0D13009F463C011235B
:1009C00009F46DC0FF2009F463C0F601858180FF42
:1009D000CECF8F7085835CC080916D0282FD33C065
:1009E000112359F0002329F0802F0E94FF0A0E9452
:1009F0003D0B80E00E944E0305C080E00E94DF03B3
:100A00000111C7CFEB2DE850FF0B349720F40E9463
:100A100049190E94E802EE2089F00E94F10A80FD47
:100A20000DC0F60112820E94EB0A0E942F07C60138
:100A30000E946D060E94EB0A0E943B07CDB7DEB70D
:100A4000E9E00C944923112389F0F11006C00E94BB
:100A50001F0B802B0E945904D5CF21E0F212F7CF53
:100A60000E941F0B802B0E94260BCCCFF11006C0DA
:100A70000E94330B802F0E946004C4CF31E0F31634
:100A800009F2F6CF112331F085E08F1508F4BACFC3
:100A9000802FE0CF94E09F1508F4B4CFEBCFFF2078
:100AA00049F3D93349F4FFEF27EE33E0F15020400A
:100AB0003040E1F700C000008D2F0E94DF03A2CF7D
:100AC0008C2F86958695837069F0813009F09ACFD6
:100AD0008D2F9C2F9370111102C090E080E00E9436
:100AE000941990CF8D2F9C2F9370111102C090E01C
:100AF00080E00E947E1986CF8D2F112329F00E945D
:100B000044110E9417127ECF0E949E11FACF8C2FA3
:100B1000837079F5111176CF4D2F42954695477028
:100B2000440F440F8D2F8F70042E01C0880F0A943C
:100B3000EAF72D2F2071D4FF07C02FE030E001C06D
:100B4000220F4A95EAF72095C695C695C370822B69
:100B5000C23049F058F4C13019F00E94090752CF51
:100B60000E9403074FCF0E940F074CCF0E9400073F
:100B700049CF8695112311F08C2F8170882309F4B9
:100B800041CF4D2F429546954770440F440F8D2F0E
:100B90008F70042E01C0880F0A94EAF72D2F207160
:100BA000D4FF07C02FE030E001C0220F4A95EAF7DA
:100BB0002095C695C695C370822BC23049F058F473
:100BC000C13019F00E945A071DCF0E9454071ACF56
:100BD0000E94600717CF0E941B0714CFCF7011230C
:100BE00029F08C2F0E942F078D2F34CF8D2F0E943C
:100BF00060048C2F0E943B0705CFD23F51F160F477
:100C0000D03FB9F0D13F81F0112309F449C0F11070
:100C1000AECE8C2F8F7121C0D33F11F1D43FA1F7FD
:100C200080916D0282FD26C08C2F8F71112311F3EC
:100C300014C0112349F084E08F1508F4E3CE8C2F03
:100C40008F710E944807DECE95E09F1508F4DACE3A
:100C5000F6CF8C2F8F711111CDCF0E942F07D2CEDE
:100C6000112329F08C2F8F710E942607CBCE0E9472
:100C70002207C8CE112349F0CF718C2F0E942F0775
:100C800063E08C2F0E94820BBDCE81E00E94A00BFE
:100C9000E1E0EF1508F0B6CE82E00E94A00BB2CEE4
:100CA000F110FFCE8C2F8F71A5CF0F931F93CF9391
:100CB000DF93EC01688179818A810E9416088C019A
:100CC0000E9466070E94FF06B801CE010E946704D9
:100CD000DF91CF911F910F910895CF93DF93EC0196
:100CE0008B819C81892B29F08881998189238F3F71
:100CF00051F4DF91CF910895CE010E945506CE01A7
:100D00000E942802F6CFCE010E947A028111F4CF10
:100D10000E94F50A882369F38A81882351F3809120
:100D20006D0282FFE6CF82E00E94A00BE2CF90E04E
:100D300080E00E947E1990E080E00E9494190E9459
:100D40001C0B0E943D0B0E9433120E941712089543
:100D50000E94E40A0E94970608950E940C0B0E94CC
:100D6000A806089592959F70963091F058F4925F7E
:100D70009F70923058F4803F19F030F4883E30F480
:100D800081E008959A5FF4CF843FD1F380E0089525
:100D9000883EB0F3813FD1F7F3CFFC01838194818A
:100DA000892B29F08081918189238F3F11F480E084
:100DB0000895808191810E940B080E94B2060895D7
:100DC000A5E0B0E0E6EEF6E00C9434232596E2E0F0
:100DD0000C945023A6E0B0E0E0EFF6E00C9434234E
:100DE0002696E2E00C94502308950E94F40608959C
:100DF0000E94F50680939F010E949706089508952A
:100E00000E94F806089590919F01892B0E94F80690
:100E1000089590919F0189230E94F806089590916A
:100E20009F0189270E94F80608950E94F4060895FC
:100E30000E94150708950E94180780939E010E9442
:100E40009706089580E00E941B07089591E001C075
:100E5000990F8A95EAF7892F0E941B07089521E0D0
:100E600030E001C0220F8A95EAF780919E01822B23
:100E70000E941B07089521E030E001C0220F8A95EF
:100E8000EAF7209580919E0182230E941B07089516
:100E900021E030E001C0220F8A95EAF780919E019F
:100EA00082270E941B07089590919E01892B0E9422
:100EB0001B07089590919E0189230E941B070895A6
:100EC00090919E0189270E941B0708950895262F5F
:100ED000277091E001C0990F2A95EAF723E07695F3
:100EE00067952A95E1F7FB01EE0FFF1FE60FF71F4D
:100EF000E40FF51F50E040E0682F70E08191DF01C2
:100F000011979B01042E02C0369527950A94E2F7AB
:100F1000217021952827292328272C934F5F5F4F85
:100F20004330510559F70895A82FA77023E09695EF
:100F300087952A95E1F7FC01EE0FFF1FE80FF91FD7
:100F4000E60FF71F50E040E080E0219130E00A2EEC
:100F500002C0369527950A94E2F721703327042EB4
:100F600001C0220F0A94EAF7822B4F5F5F4F433094
:100F7000510559F70895262F943068F4843058F4B9
:100F800034E0939FB0011124680F711D48E951E0CE
:100F9000822F0E9467070895943070F4843060F4C3
:100FA00044E0949F9001112468E971E0820F932F2F
:100FB000911D0E949407089580E00895CF92DF92DA
:100FC000FF920F931F93CF93DF936C0100919E01CB
:100FD00080919F01082BC7E0D0E010E0FC2EC801F3
:100FE0000C2E02C0959587950A94E2F780FD0CC0FF
:100FF0002197A0F7F12C8F2DDF91CF911F910F91A9
:10100000FF90DF90CF900895B6018C2F0E94520E72
:10101000019771F3F0CFCF93DF93EC010E94DE07CD
:10102000BE010E94520EDF91CF9108951F93CF937E
:10103000DF93EB0190919701992339F0CB010E9446
:101040000B08DF91CF911F910895882369F0CB01A0
:101050000E94DE07182F682FCE010E94BB07BE0139
:10106000812F0E94520EEDCFCB010E94CC07182F8A
:10107000F6CF1F93CF93DF93C091A00116E080912C
:10108000A1018C1304C0DF91CF911F910895D0E08E
:101090001C9FF0011D9FF00D1124EE55FE4F408165
:1010A000518162817381848195810E94EA06219633
:1010B000C770E5CF4091D2015091D3016091D40126
:1010C0007091D5018091D6019091D7010E94EA06D6
:1010D00008951F93CF93DF938091D701807F09F00C
:1010E00049C08091D401882309F444C08091A001B3
:1010F000C091A1016091D2017091D301A091D5015D
:10110000B091D601D62FD72316E0C81799F190E0F9
:10111000109711F0DF3F19F401968770F6CF189FF2
:101120009001199F300D1124F901EE55FE4F4181B8
:101130004713F2CF40814613EFCF42814111ECCFEC
:10114000438154814A1B5B0B483C510528F7809131
:10115000D7018F7080618093D701F901E955FE4F67
:1011600080818F708061808382ED91E00E946D06A6
:101170000E943908DF91CF911F910895A1E1B0E05D
:10118000E4ECF8E00C942C238C0185E0F801DE01FE
:101190001D9601900D928A95E1F7F801E28082EDAB
:1011A000C82E81E0D82E6091D5017091D6016115CD
:1011B000710509F44EC19091D2012091D301892F7C
:1011C00082238F3F09F445C140815181A380B480BF
:1011D000F090D401F501E61BF70BFF2009F4EAC0FB
:1011E0008091D701382F307FE83CF10508F0A3C08B
:1011F00031116DC0FE2C251316C0941314C0E110DC
:1012000012C08F7080618093D7010E945A08C60176
:101210000E946D068091D701F80185838F2D61961C
:10122000EAE00C944823A114B10429F0842F85230B
:101230008F3F09F027C180E0F82FF170DF2E80FF8B
:101240003CC08091A0012091A10136E0821315C01D
:101250004D875E878D859E850E940B08292F2295DC
:101260002F702230F0F0243018F59F70F1F0F80163
:101270009581907FD1F4D12C1EC090E0389FF00171
:10128000399FF00D1124EE55FE4F6181651306C0A4
:101290006081641303C06281E6120FC001968770FB
:1012A000D5CF9F7011F0882331F3805E883018F31A
:1012B000C8010E946D06FD2CB1CFEE2009F4AECF1F
:1012C0008091D70181608093D701F12CA7CF25139E
:1012D00006C0941304C0F801EE2009F487C0C801C9
:1012E0000E94CD06882319F1EE2009F18091D701E3
:1012F000803270F02091D2013091D30138872F8352
:101300001986BB86AA868C87CE0107960E946D0639
:1013100086E0F801A2EDB1E001900D928A95E1F727
:101320000E9469080E945A08FF24F39477CFC801ED
:101330000E946D06F9CF311113C07A2DB98AA88A9F
:101340006E2D89890E94E00682ED91E00E946D0673
:1013500086E0F60111928A95E9F70E945A08B5CF06
:1013600025130FC094130DC0E1100BC0F801858345
:10137000C8010E946D0686E0F60111928A95E9F790
:101380004DCFC8010E94CD06882389F2EE2079F264
:101390008091D701803208F4BBCF2091D2013091E7
:1013A000D3013A8329831B82BD82AC828E83CE0116
:1013B0000196ACCFE83CF10508F03EC0FE2CEE20D3
:1013C00009F4B5CF25132AC0941328C08091D70102
:1013D00080FD1BC0982F907FC1F0F8018583903F5E
:1013E00031F0982F907F905F8F70892B8583C80193
:1013F0000E946D0686E0F801A2EDB1E001900D9229
:101400008A95E1F70E945A0809CF86E0F801A2ED1B
:10141000B1E001900D928A95E1F700CFC8010E94DA
:10142000CD06811175CF8091D70181608093D7015E
:10143000C8010E946D06F2CE7A2DB98AA88A6E2D57
:1014400089890E94E00686E0F60111928A95E9F703
:10145000D9CFEE2009F46BCFC8010E94CD06F82E3B
:10146000882309F464CF86E0F801A2EDB1E0019091
:101470000D928A95E1F782ED91E00E9448030E9467
:101480006908C0CF81E08E25D7CEACE0B0E0EBE4B8
:10149000FAE00C9433234F83588769877A878B87C8
:1014A0009C87CE0107960E94BE08882369F08A8532
:1014B0009B85892B39F04F815885842F85238F3F59
:1014C00009F06BC016E05FC086E0FE013796DE01D2
:1014D000119601900D928A95E1F78A859B85892B5B
:1014E00089F38F81988589238F3F61F32091A10132
:1014F00030E0C9010196877099274091A0014817F3
:10150000190671F40E94AD061092A1011092A0017B
:1015100086E0E2EDF1E0DF011D928A95E9F7D2CF96
:1015200096E0929FD001939FB00D1124AE55BE4F0F
:10153000FE01319601900D929A95E1F78093A101F9
:101540000E943908BFCF819FC00111248E559E4F44
:101550000E94BE088823E9F0E091A0011E9FF001DF
:101560001124EE55FE4F4081518162817381848147
:1015700095810E94EA068091A00190E00196877013
:1015800099278093A0018091A0019091A1018913D6
:10159000DACF2C96E3E00C944F2369857A858B850E
:1015A0009C850E94EA068ECF682F80910001909161
:1015B00001010E943E1A0895682F809100019091C8
:1015C00001010E944C1A089580910001909101013F
:1015D0000E945A1A08958091F80185958595859500
:1015E00008958091F801877008959091F80197709F
:1015F00081E009F480E0089580911B0208959091A4
:101600001B02892B80931B020895809590911B02E9
:10161000982390931B02089510921B0208959091B5
:101620001A02892B80931A020895809590911A02CC
:10163000982390931A02089510921A0208958091A7
:10164000F901089508950E94220B089590916D026A
:1016500092FF08C09091F901981721F08093F90149
:101660000E94230B08958091F901882329F010929C
:10167000F90180E00E94230B0895CF93DF93E0915E
:101680000001F091010180911B028083E091000133
:10169000F0910101808190911A02892B80839091B1
:1016A000F901992381F0E0910001F091010180811D
:1016B000892B808380910001909101010E94AA19D9
:1016C00081110E94330BC0910001D091010140E2D1
:1016D00050E068ED71E0CE010E946F23892B59F034
:1016E00080E2FE01A8EDB1E001900D928A95E1F74C
:1016F000CE010E945619DF91CF91089508950E945E
:101700007E0B089590916D0292FF11C098E0899F21
:1017100090011124622B6093F8010E942F078091A1
:10172000F8018595859585950E947F0B08950E9407
:101730002F0708951092F80180E00E947F0B089512
:101740009091F801809589238093F801282F2770C4
:1017500091F4282F082E000C330B9217130659F022
:1017600090916D0292FF07C08595859585950E94A1
:101770003B070E949A0B089590916D0292FB2227DD
:1017800020F9281769F080FB92F990936D028091FF
:101790006C0290916D020E940E0C82E00E94A00BE0
:1017A000089580916D0282FB882780F991E0892756
:1017B0000E94BC0B089581E00E94BC0B089580E05C
:1017C0000E94BC0B08956FEF7FEF90E080E00E94D5
:1017D000B123089590E080E00E948D23883E9E4FC3
:1017E00019F40E945113089580E0089582E090E07A
:1017F0000E948523089583E090E00E948523089548
:10180000CF9384E090E00E948523C82F82E290E08D
:101810000E948523982F8C2FCF910895CF93C92FA5
:10182000682F84E090E00E9493236C2F82E290E086
:101830000E949323CF910895AB01BC018FE090E00B
:101840000E94A5230895AB01BC0183E190E00E94B2
:10185000A523089560E070E0CB010E94230C089559
:1018600060E070E0CB010E941C0C0E942A0C0895DD
:1018700068EE7EEF90E080E00E94B12360E082E0BD
:1018800090E00E94932360E083E090E00E94932325
:1018900010929F0160E084E090E00E94932364E056
:1018A00082E290E00E94932360E085E090E00E9455
:1018B000932360E086E090E00E9493236FEF87E03F
:1018C00090E00E94932340E050E0BA0188E090E06D
:1018D0000E94A52360E08DE090E00E94932340E009
:1018E00050E0BA0188E190E00E94A52360E087E122
:1018F00090E00E94932340E050E0BA018CE190E038
:101900000E94A52370E060E080E290E00E94B12395
:1019100040E050E0BA0188E190E00E94A52380E019
:101920000E946A130E9499130E94300C08950E942D
:10193000380C0895682F8EE090E00E94932308955C
:101940000E94271B6093260270932702809328022F
:1019500090932902609322027093230280932402C1
:10196000909325020895089508950E94B40C089557
:1019700008950E94B80C08958CE39FE00E943F19DF
:101980000E94B30C0E94B50C089581E008950E9456
:10199000C50C0895089508950E94CA0C0E94CB0CAE
:1019A00008950E945B0F0E94E70208950E94121B97
:1019B0000E94A9130E941E100E94D10C0E94B90C13
:1019C0000895AAE0B0E0E7EEFCE00C942C230E941E
:1019D00034108EE1A82E82E0B82E750110E0F701D8
:1019E00001917F01812F0E947E0F1F5F143009F447
:1019F00040C00817A1F380912A0281FD0E94840F44
:101A00000E94C70CC82E10E0812F0E947E0F082F65
:101A1000F50181915F01081731F1D02ED826F12C04
:101A2000EE24E3948D2D8E21B1F0CC20A1F0FE8226
:101A30001F8391E0802F8E2109F490E098870E9407
:101A40001B1B8160782F9A8789874E815F8168850B
:101A50008A850E941303F394EE0CF4E0FF12E2CFA8
:101A6000F501319700831F5F143071F60E94A00CBE
:101A700020C00813C0CF0E941B1B8C0180911C0248
:101A800090911D0208171907A1F08FEF89838A83AF
:101A90001B820E941B1B8160782F9D838C83498150
:101AA0005A816B818D810E94130310931D02009354
:101AB0001C020E9455120E94FA022A96EAE00C9437
:101AC0004823CF93DF930E94570EEC01811521E547
:101AD000920708F042C0811530E5930708F09FC0D7
:101AE000883E910530F5803E910508F094C0883A13
:101AF000910588F4853A910508F086C081309105FA
:101B000009F489C0009709F486C0049708F083C0DF
:101B1000D0E0C0E080C08F3B9105D0F7C85AD0E03C
:101B2000CC0FDD1FC85BDE4F0990D881C02DD46477
:101B300072C0811540E2940750F4C11581E0D807C6
:101B400008F069C0C03FD10518F3D06564C08115A5
:101B50009044F0F2DF70D06A5EC0811535E59307DE
:101B600018F5811544E5940708F085C0C11583E593
:101B7000D80708F06CC0C11522E5D20708F462C08E
:101B8000CE018370992721E030E002C0220F331F7D
:101B90008A95E2F7C695C69580E2C89FE0011124B8
:101BA000C22BD32BDC6837C0811539E59307A8F425
:101BB000811548E5940708F063C0C11586E5D8078C
:101BC00008F0A6CF8C2F0E94F90EC82FD0E0DC2F92
:101BD000CC27CC27DF71D0621EC081152AE5920781
:101BE00008F453C090568115904208F091CF8D2F84
:101BF0008F710E94F90E90E0982F882788279F7197
:101C00009C012C2BE901E7CFC55AD0E0CA58DE4F22
:101C1000C881D0E0D064CE01DF91CF910895837068
:101C2000992721E030E002C0220F331F8A95E2F7A6
:101C3000C695C69540E2C49FE0011124C22BD32B68
:101C4000DD68E9CFDC2FCC27C16FD06AE4CFCE01AD
:101C50008370992721E030E002C0220F331F8A955C
:101C6000E2F7C695C69540E2C49FE0011124C22B5D
:101C7000D32BDA68D0CFD82FCC27C46FD06ACBCF84
:101C8000D82FCC27C06FD06AC6CF8F700E94F90EB4
:101C900034E0D695C7953A95E1F7CF709C2FEC01CB
:101CA000D069B9CF0E94A7170E94610D08958238AC
:101CB0009105B9F1B0F48133910509F47DC048F480
:101CC0008932910509F46DC08A32910509F47BC00F
:101CD00008958533910509F45FC08933910509F1B1
:101CE0000895833E9105D9F138F4803E910529F19C
:101CF000823E910579F10895863E9105D9F1873E9E
:101D0000910509F43EC0843E910541F520916D0294
:101D100021FF24C080916C0284FD19C087EE90E001
:101D2000089520916C02237009F05AC020916D0231
:101D300023FF14C089E290E0089520916C0220FDF9
:101D400038C030916D0230FF09C024FF43C090E0DD
:101D500080E0089520916C0222FDF7CF0895209134
:101D60006C0222FD3AC030916D0230FD39C024FF73
:101D7000F5CFEDCF20916C0223FFF0CF24FDE7CF0C
:101D8000CDCF20916C0223FD2EC030916D0231FF2A
:101D9000EECF84EE90E0089520916C0225FFDECF17
:101DA000C9CF20916C0225FD21C020916D0223FF37
:101DB000D5CF89E390E0D2CF20916C0226FFCECF21
:101DC0008AE290E0089520916C0226FFC7CF81E35C
:101DD00090E0089583EE90E0089582EE90E00895FB
:101DE00080EE90E0089586EE90E0089585E390E01F
:101DF000089590916C0292FF06C0282F2871283018
:101E0000F9F4877F846093FF06C0282F287128315A
:101E1000F1F4877E846120916D0220FF06C0382F87
:101E200038713830D9F4877F816021FF06C0282FB0
:101E300028712831D1F4877E816194FD877E0895D1
:101E4000282F24712430F9F68B7F8860DCCF282F6F
:101E50002471243101F78B7E8861DDCF382F3171F9
:101E6000313019F78E7F8860E0CF282F2171213122
:101E700021F78E7E8861E1CF80E008950E94E30B18
:101E800008950E9434102FEF86E791E021508040A2
:101E90009040E1F700C000000E94341080E00E94F2
:101EA0007E0F80FF04C00E943E0F0E94661B0895B3
:101EB0000E94410F08950E94EA0B811102C00E9406
:101EC000970C0E94F60B80932A020E94000C9093BC
:101ED0006D0280936C020E94580F0E94FB0B0E94BF
:101EE000000780919E010E941807089508950E949E
:101EF000760F089508950E947A0F0895E82FF0E074
:101F0000EE58FD4F80810895089580EA8A95F1F793
:101F1000089500C008950E94850F0895F894E82F51
:101F2000E295EF70F0E031A1282F2F7081E090E072
:101F300001C0880F2A95EAF7982F9095932391A3D3
:101F400092A1892B82A37894089584EF0E948E0F2A
:101F500085EF0E948E0F86EF0E948E0F87EF0E9402
:101F60008E0F83E90E948E0F82E90E948E0F81E915
:101F70000E948E0F80E90E948E0F0895B0E0A0E0CD
:101F8000E4ECFFE00C942E237C01162F042FC62FC7
:101F9000D0E0CE0187589E4F6C01EC0128812F3F85
:101FA00009F444C0F894E22FE295EF70F0E031A11B
:101FB0002F7081E090E001C0880F2A95EAF7932FF7
:101FC000982B91A392A18095892382A378940E9453
:101FD000890FADE7B1E0F70141E851E0F12C602F46
:101FE00060959D9180819F3F31F1292F22952F701F
:101FF00030E0E90128A130E09F7002C035952795B7
:102000009A95E2F720FD17C0802B8083FF24F3947C
:1020100031964A175B0729F7F60180818F3F11F04F
:102020000E948E0F6F2D812F0E948B0FCDB7DEB7D0
:10203000E8E00C944A2386238083EACF0E94A50F10
:1020400084E0E2E7F2E0DF01982F1D929A95E9F72C
:10205000EEE6F2E0DF011D928A95E9F784E00E9446
:1020600074100E945B020895A4E0B0E0EAE3F0E19E
:102070000C94322319821A821B821C8210E001E028
:10208000402F612FCE0101960E94BE0F1F5F000FEF
:102090001430B1F744E050E0BE016F5F7F4F8EE631
:1020A00092E00E946F2321E0009709F420E0892B41
:1020B00061F089819A81AB81BC8180936E0290939B
:1020C0006F02A0937002B093710244E062E772E085
:1020D0008EE692E00E947510182F0E945E02812FFA
:1020E0002496E4E00C944E230895CF92DF92EF9271
:1020F000FF920F931F93CF936C017B01042F222338
:1021000049F081E080932D020E941B1B90932C02CA
:1021100080932B02C0912D02C1110AC0C0E08C2F08
:10212000CF911F910F91FF90EF90DF90CF90089586
:1021300080912B0290912C020E94331B059770F323
:1021400010E0A801B601C7010E946F23892B41F05E
:10215000A801B601C7010E947C2310922D02DFCF97
:10216000C0E0FBCF0E94621D0E94D60C0E946F1D32
:1021700008950E94741D0E94E10C0E948E1D089516
:102180000E94B41A0E94481D0E94BC0C0E94B2100A
:102190000E94B9100E94CC0CFBCF8091340280FFCA
:1021A0000DC06091070170E0660F771F6038710500
:1021B00070F56115710569F1862F089581FF07C0DB
:1021C0006091070184E0689FB0011124EFCF609116
:1021D000070182FD0AC0809133028823A9F0209173
:1021E000060160910701821710F088E0ECCF869F0E
:1021F000C001112433E0880F991F3A95E1F7622F4F
:1022000070E00E940323D2CF68E070E0D5CF8FE763
:10221000089581E008958091340280FF0CC06091A0
:10222000030170E075956795759567956115710562
:1022300049F1862F089581FF06C06091030170E087
:1022400075956795F3CF6091030182FD0BC0909166
:1022500032029923A1F06091020180910301961747
:1022600038F0682F70E06038710500F38FE708954B
:10227000899FC001112470E00E940323F4CF61E024
:1022800070E0D7CF81E00895803F31F40E94CD10F7
:102290008195809338020895813F19F40E94CD10F2
:1022A000F8CF823F31F40E94CD10819580933702A0
:1022B0000895833F19F40E94CD10F8CF893F29F487
:1022C0000E940B118093390208958A3F21F40E94E5
:1022D0000B118195F7CF8B3F31F40E940B11819543
:1022E00080933A0208958C3F19F40E940B11F8CFA5
:1022F0009CE0980F953070F4845F990B21E030E0FA
:1023000001C0220F8A95EAF780913602822B8093D2
:10231000360208958D3F31F48091340281608093BC
:10232000340208958E3F21F4809134028260F7CF09
:102330008F3FB9F7809134028460F1CF409137022A
:10234000803F59F48091380287FF0DC01092380207
:1023500041110BC01092330208C0813F81F480917B
:10236000380218169CF3442381F080913902909131
:102370003A02892B09F05AC0109232020895823F26
:1023800049F447FFF0CF1092370280913802811153
:10239000ECCFE0CF833F19F41416ACF3E4CF909167
:1023A0003902893F29F41916F4F610923902DBCF6D
:1023B0008A3F19F497FFD7CFF8CF90913A028B3F1D
:1023C00029F497FFD0CF10923A02CDCF8C3F19F469
:1023D0001916CCF3C8CF9CE0980F953090F4845F29
:1023E000990B21E030E0B90102C0660F771F8A9592
:1023F000E2F7CB01809590913602892380933602D3
:10240000B2CF8D3F31F4809134028E7F80933402BD
:10241000AACF8E3F21F4809134028D7FF7CF8F3F7A
:1024200009F0A1CF809134028B7FF0CF08950E94F4
:102430001B1B9C019091370280913802982B21F050
:1024400030933102209330029091390280913A0208
:10245000982B21F030932F0220932E0285E392E0F7
:102460000E947019089586E0E5E3F2E0DF011D9215
:102470008A95E9F7109233021092320210923402D8
:102480000895FC01828181110EC0838181110BC0EE
:102490008481811108C091E08581811101C090E0A3
:1024A000892F8170089581E0FCCFA6E0B0E0EBE5D4
:1024B000F2E10C94332386E0E5E3F2E0DE011196CD
:1024C00001900D928A95E1F710923702109238022E
:1024D0001092390210923A028B819C81892B89F0EB
:1024E00080913002909131020E94331BAC01909197
:1024F00033029923C9F1809108018417150608F465
:1025000040C08D819E81892B91F080912E02909107
:102510002F020E94331BAC0190913202992309F4DF
:1025200071C0809104018417150608F479C0BE01BA
:102530006F5F7F4F85E392E00E946C1A811105C0A6
:1025400085E392E00E94411281110E94171286E0F9
:10255000FE013196A5E3B2E001900D928A95E1F774
:102560002696E3E00C944F23209109018AE0289FEE
:10257000900111242417350720F69F5F90933302B2
:1025800002C09F3FD1F71B81112359F00E94CD104B
:102590009FEF11160CF491E0899F802D11248093F8
:1025A00037021C81112359F00E94CD109FEF1116A4
:1025B0000CF491E0899F802D112480933802309192
:1025C0003702332309F49DCF20913802222309F4E6
:1025D00098CF45EB3403C0011124992359F090930F
:1025E000370245EB240390011124332339F0309353
:1025F000380287CF81E080933702F3CF81E0809368
:1026000038027FCF209105018AE0289F9001112494
:102610002417350708F08BCF9F5F9093320202C0DA
:102620009F3FD1F71D81112359F00E940B119FEF9D
:1026300011160CF491E0899F802D112480933902AA
:102640001E81112359F00E940B119FEF11160CF4FB
:1026500091E0899F802D112480933A0230913902B4
:10266000332309F464CF20913A02222309F45FCF87
:1026700045EB3403C0011124992359F0909339029A
:1026800045EB240390011124332339F030933A02AF
:102690004ECF81E080933902F3CF81E080933A02FC
:1026A00046CF83E290E00E948523823289F484E25F
:1026B00090E00E948523803159F485E290E00E94E9
:1026C000852391E0893009F090E0892F8170089589
:1026D00080E0FCCFCF93C82F6FEF811162E283E2DD
:1026E00090E00E9493236FEFC11160E184E290E0DB
:1026F0000E9493236FEFC11169E085E290E00E9490
:102700009323CF910895089586E290E00E94852357
:10271000682F70E090E080E008950895CF93C62F71
:102720000E948D136C2F86E290E00E949323CF913C
:10273000089580E00E946A1360E070E0CB010E947F
:102740008E130E9427170E94041881E00E946A13CA
:1027500008950E9483130E9484130E948D130E9487
:102760005113811102C00E9499130895CF93FB0168
:10277000C281CC2309F19C0122513F452031310512
:1027800020F582510E941418C0E08C2FCF9108953B
:1027900081E00E942F0743E062E081E00E94510245
:1027A000F3CF81E00E943B0743E062E081E00E94BA
:1027B0005102EBCF82E0F6CF8031FFE59F0789F32E
:1027C00081319F45B9F3C1E0E0CF8031EFE59E074D
:1027D000F9F281319F45C9F682E0DBCF2FEFFC0192
:1027E00020830895EF92FF920F931F93CF93DF936F
:1027F000EC01062FE881E150E33108F05DC0F0E024
:10280000EB52FC4D0C94172319828AE08A83602FC7
:10281000CE010E941B1CCDB7DEB7E6E00C944C2322
:102820008981823069F0833071F08130D9F40E945F
:10283000271B0E941D236A837B838C839D83E7CFA4
:102840000E948413F6CF7E0182E0E80EF11C10E0B6
:10285000812F0E947E0FF70181937F011F5F14304B
:10286000B9F7D5CF602FCE010E94EE13D0CF89816A
:102870008230C1F76A817B818C819D810E941D23FA
:102880000E948E13C4CF4B816A8189810E94E91610
:102890009827892798279D838C83B9CF2C813D81E8
:1028A0003227232732274B816A8189810E940B17A7
:1028B000AECF0E942717ABCF8FEF8883A8CF0E949F
:1028C000B5178983A4CF0E94B7179827892798271F
:1028D0009A8389839CCF6B8170E089819A81AE0154
:1028E0004C5F5F4F9827892798270E94BA178FCF90
:1028F0006B8170E089819A81AE014C5F5F4F9827B0
:10290000892798270E94DF1782CF0E9404187FCF63
:102910000E94D616D6CF6B8170E089819A81AE0174
:102920004C5F5F4F9827892798270E9461176FCFC8
:102930006B8170E089819A81AE014C5F5F4F98276F
:10294000892798270E94841762CFCF93DF93EC01E9
:10295000FB018281882309F464C1C330FDE5DF07F0
:10296000E0F5CA3F9CE5D90730F49E0122503C4572
:1029700024313105D8F50E94000C90936D028093AC
:102980006C02C231ECE5DE0709F41FC108F06EC02D
:10299000C9308CE5D80709F4F2C008F03FC0C53053
:1029A000ECE5DE0709F4DBC058F5C3308CE5D80749
:1029B00009F4CDC008F0CFC080916C028160C230B4
:1029C000DC4509F4AEC080916C0290916D020E94CA
:1029D0000E0C0E94AD0680E009C0C53AEDE5DE07A9
:1029E00051F238F4C1369DE5D90729F2DF91CF9134
:1029F00008959E012D5A3D4523303105B8F7BBCFD0
:102A000080916C028062C730FCE5DF0709F489C061
:102A100008F4B1C080916C02806483C0CD309CE525
:102A2000D90709F4BAC070F480916C028E7FCB3064
:102A3000FCE5DF0709F475C008F4A7C080916C02BB
:102A40008D7F6FC0CF309CE5D90709F4B6C008F47C
:102A5000A8C0C031FCE5DF0709F4B3C0C131DC45D3
:102A600009F0B1CF80916C028F7B5BC0CF3F9CE5BA
:102A7000D90709F4B4C098F5CA3FFCE5DF0709F4AB
:102A800072C0B8F4C4319CE5D90709F4B6C008F4A3
:102A9000A2C0C531DC4509F096CF80916C0282FB63
:102AA000992790F921E0922790FB82F990FB83F916
:102AB00038C0CC3F8CE5D80709F477C008F457C07C
:102AC000CD3FECE5DE0709F474C080916D028360B0
:102AD000CE3FDC4509F077CF80936D0274CFC136CD
:102AE0008DE5D80709F496C068F4C130EDE5DE073E
:102AF00009F48CC008F477C0C230DD4509F063CF1B
:102B000080E085C0CD3A9DE5D907E9F068F4909161
:102B10006C02892F8E7F90FF8160C53ADD4509F0F8
:102B200052CF80936C024FCFCE3A8DE5D80789F112
:102B3000CF3ADD4509F047CF90916D02892F877F0D
:102B400093FF8860C9CF80916D028860C5CF809166
:102B50006C028260E6CF80916C028460E2CF80914B
:102B60006C028860DECF80916D028160B5CF80916C
:102B70006D028260B1CF80916C028061D2CF0E94E1
:102B8000AD0680916C028068CCCF80916C028C6025
:102B9000C8CF80916D02877F9FCF80916C028B7F21
:102BA000C0CF80916C02877FBCCF80916D028E7FF9
:102BB00093CF80916D028D7F8FCF80916C028F7E3D
:102BC000B0CF80916C028F7DACCF0E94AD0680911A
:102BD0006C028F77A6CF80916C02837FA2CF809109
:102BE0006D028C7F79CF80916D02982F90959170B6
:102BF0008E7F892B90FB81F96FCF0E94AD0690915B
:102C00006C02892F97FB87F980588BCF81E00E9457
:102C10009A0CD9CE90916C02892F8F7E94FF80619F
:102C200080CF81E0E3CEB0E0A0E0E9E1F6E10C94F2
:102C30002F23E82FF0E0E45DFE4FD490282F269557
:102C40002695269530E0F901E453FE4F04918770F4
:102C500010E0082E02C0159507950A94E2F701705E
:102C60001127F901E454FE4FE490F12C082E02C024
:102C7000F594E7940A94E2F791E0E922FF24F90140
:102C8000E455FE4FC491D0E002C0D595C7958A9512
:102C9000E2F7C170DD270115110519F081EE0E94E0
:102CA0004E03E114F10419F086EE0E944E038D2DBF
:102CB0000E945004E114F10419F086EE0E94DF0333
:102CC0000115110519F081EE0E94DF03CD2B19F0DB
:102CD0008CE20E945004CDB7DEB7E7E00C944B23A2
:102CE000EF92FF920F931F93CF93DF93EC01162F78
:102CF0000AE08881882309F454C0813009F04EC06D
:102D00008981813099F47E0122E0E20EF11C8A81F2
:102D10000E945004E7012196812F815050F3EFE982
:102D2000FFE03197F1F700C00000F7CF823041F4A7
:102D30007E0182E0E80EF11C8A810E944E03EACFF8
:102D4000833041F47E01E2E0EE0EF11C8A810E94A4
:102D5000DF03E0CF843011F02196DDCF2A81229667
:102D600090E080E0AE014F5F5F4F2053330B2A307D
:102D7000310548F0019778F2EFE9FFE03197F1F77C
:102D800000C00000F7CF089FB001099F700D11240B
:102D9000C901860F971F2981EA01E4CF0E9413160B
:102DA000BACFCDB7DEB7E6E00C944C2384E00895AB
:102DB00028E0629FB001112450E0440F551F640FBA
:102DC000751F20E2829FC0011124860F971F8796EE
:102DD00008950F931F93CF93DF938430C8F464302A
:102DE000B8F44430A8F40E94D8168C010E948523C0
:102DF000C82FD0E0DC2FCC27C80101960E94852384
:102E00009E01282BC901DF91CF911F910F91089549
:102E100090E080E0F8CF0F931F93CF93DF93122FB2
:102E2000032F843078F4643068F4443058F40E94FE
:102E3000D816EC01602F0E949323612FCE010196DA
:102E40000E949323DF91CF911F910F910895B0E0DD
:102E5000A0E0EDE2F7E10C942C238CEAC82E80E090
:102E6000D82ED0E0C0E0760110E01CC00E94E30143
:102E700021E030E08C171D0621F01CF0F5012591B2
:102E80003491402F612F8C2F0E940B1782E0A80EE7
:102E9000B11C0F5F043051F71F5F88E0E80EF11C92
:102EA000143019F0570100E0E1CF219680E2C80EFE
:102EB000D11CC430D105B9F6CDB7DEB7EAE00C9429
:102EC0004823EF92FF920F931F93CF93DF93EC0170
:102ED0008A017C01E60EF71ECE018796CE15DF052E
:102EE00029F4CDB7DEB7E6E00C944C23C038D10509
:102EF00040F40E948523F80180830F5F1F4F2196C5
:102F0000EBCFF8011082F9CFB0E0A0E0EAE8F7E1FA
:102F10000C942E237C016A018C01060F171FEC0113
:102F2000CE018796C017D10729F4CDB7DEB7E8E008
:102F30000C944A23C038D10540F4FE01EE19FF0974
:102F4000EC0DFD1D60810E9493232196E9CF462F51
:102F5000843040F4743030F4643020F4672F0E94E1
:102F6000E916089590E080E0089580E1089589E5EC
:102F700093E00895EF92FF920F931F93CF93DF9307
:102F8000EC018A017C01E60EF71ECE0189559F4FA8
:102F9000CE15DF0529F4CDB7DEB7E6E00C944C235F
:102FA000C93523E0D20740F40E948523F8018083CD
:102FB0000F5F1F4F2196E9CFF8011082F9CFB0E0E3
:102FC000A0E0E5EEF7E10C942E237C016A018C0170
:102FD000060F171FEC01CE0189559F4FC017D1076F
:102FE00029F4CDB7DEB7E8E00C944A23C93523E0D5
:102FF000D20740F4FE01EE19FF09EC0DFD1D6081C2
:103000000E9493232196E7CFCF93DF93C7EAD0E0C6
:1030100060E0CE010E9493232196C11584E0D80779
:10302000B9F7DF91CF910895A4E0B0E0EAE1F8E1CB
:103030000C942F23F82E8FE08F1548F18FEF93E03B
:103040000E948523811123C007EA10E0F11023C0FC
:1030500019821A821B821C82DD24D39478018FEF9F
:10306000E81AF80AC8010E94852389831A828823F6
:1030700071F09FEF980F9330D8F48A83D9820E5F56
:103080001F4FC7010E9485238B83811112C0249694
:10309000E7E00C944B23011584E01807C1F3C80145
:1030A0000E948523811101C0FA940F5F1F4FCECF7C
:1030B000870160E0CE0101960E947016CFCFCF93BA
:1030C000DF93EB0186319C4511F50E94FC0A9A8141
:1030D000992399F08A7A91E009F490E090933B0269
:1030E000811109C089E20E94D40A0E943D0B80E050
:1030F000DF91CF91089585E3F6CF80913B02811156
:1031000004C089E20E94DC0AF0CF85E3FBCF81E0B6
:10311000EFCF0F931F93CF93DF93C42FD22FFC01D8
:1031200082818823C9F040933E020E941B1B90932A
:103130003D0280933C0280E28C0F883040F4C770DF
:1031400081E001C0880FCA95EAF70E945904DF9117
:10315000CF911F910F91089510913E02141332C028
:1031600080913C0290913D020E94331B883C910566
:1031700048F5C0E2CD0F1D17B9F080E2810F88300D
:1031800040F4177081E001C0880F1A95EAF70E9499
:103190006004C83048F481E09D2F977001C0880F0B
:1031A0009A95EAF70E945904802F0E945004C83073
:1031B00070F6D77081E001C0880FDA95EAF70E94B7
:1031C0006004C5CF80E28C0F883008F6C77081E0BC
:1031D00001C0880FCA95EAF7F2CF0F939C01CB018B
:1031E000233F4CE5340759F1A8F4283DFCE53F079F
:1031F00001F1293D4CE53407D1F1273D3C4591F4DF
:1032000006E221EE41EE67ED7CE50E94891880E040
:103210000F910895253FFCE53F07E9F0B0F0263F08
:103220003C45F9F0FC018281882339F110923E027D
:10323000EFCF07E225EE45EE68ED7CE5E6CF06E24E
:1032400021EE40EE63EF7CE5E0CF07E225EE44EEB1
:1032500064EF7CE5DACF06E221EE42EE65EF7CE535
:10326000D4CF07E225EE46EE66EF7CE5CECF08E24E
:1032700021E045EE69ED7CE5C8CF81E0C9CF9093B0
:1032800091018093900108959093440280934302AA
:103290000895E0914302F0914402309729F00190A3
:1032A000F081E02D0995089580E00895E0914302B2
:1032B000F0914402309799F020911601222359F0A1
:1032C00020916C0227FF07C0DC012C9111962C93F2
:1032D000119726E02C930280F381E02D0995089543
:1032E000E0914302F0914402309739F022E0DC0192
:1032F0002C930480F581E02D0995089520914102D9
:10330000309142022817390771F09093420280935E
:103310004102E0914302F0914402309721F006808F
:10332000F781E02D0995089520913F0230914002E8
:103330002817390771F09093400280933F02E09183
:103340004302F0914402309721F00084F185E02D92
:1033500009950895FC01329680911601882321F089
:1033600080916C029EE187FF96E080E0915008F426
:10337000089521912223D1F38F5FF8CF662301F1C5
:10338000209116012223F1F020916C0227FF1AC030
:10339000462F4695469546954E3190F4677021E04C
:1033A00030E002C0220F331F6A95E2F7840F911DAF
:1033B000FC01828190E02823392381E0232B69F4EA
:1033C00080E00895FC01329608962191261721F09D
:1033D000E817F907D1F7F4CF81E008959C01FC01CB
:1033E00032969FEF80E04191461751F09F3F19F4CC
:1033F000411101C0982F8F5F8630A9F79F3F09F4D4
:103400000895290F311D97FD3A95F90162830895BA
:10341000FC01329608962191261303C0DF01119713
:103420001C92E817F907B9F70895E62FE695E69597
:10343000E695EE3168F4E80FF92FF11D677021E091
:1034400030E001C0220F6A95EAF78281822B8283E5
:103450000895E62FE695E695E695EE3170F4E80FCF
:10346000F92FF11D677021E030E001C0220F6A954D
:10347000EAF720958281282322830895209116015E
:10348000222339F020916C0227FF03C00E94151AF5
:1034900008950E94EE19089520911601222339F013
:1034A00020916C0227FF03C00E94291A08950E94F0
:1034B000081A0895FC01329680911601882351F074
:1034C00080916C0287FF06C08EE1DF011D928A9514
:1034D000E9F7089586E0F9CF46E050E00E946F23B7
:1034E00021E0892B09F420E0822F089508950E949D
:1034F000761A0895811106C081E0809345020E94EA
:10350000771A089582E0F9CF83E0809345020E9404
:10351000771A08950E947A1A089581E080934502EF
:103520000E94771A08950E948D1A089508950895AB
:103530000E94971A0895089508950E94961A089572
:10354000CF930E949B1A0E9434100E949C1AC0E0E4
:103550008C2F0E947E0F811105C0CF5FC430C1F750
:10356000CF91089581E0FCCF85B7806885BF85B78E
:10357000806885BF08951F921FB61F9211248F93F4
:103580009F93AF93BF9380914602811113C08091A6
:10359000760290917702A0917802B09179024196DB
:1035A000A11DB11D8093760290937702A0937802BB
:1035B000B0937902BF91AF919F918F911F901FBEE1
:1035C0001F90189580917E02843031F10E94D402C0
:1035D0001092460288E190E020E40FB6F894A89596
:1035E000809360000FBE2093600083B7817F84606A
:1035F00083BF83B7816083BF7894889583B78E7FBC
:1036000083BF0FB6F894A89580916000886180937D
:103610006000109260000FBE08950E94AD060E94E7
:10362000D902089582E084BD93E095BD9AEF97BDDD
:1036300080936E0008952FB7F89480917602909150
:103640007702A0917802B09179022FBF08952FB729
:10365000F89460917602709177028091780290914F
:1036600079022FBF08959C014FB7F894809176029C
:1036700090917702A0917802B09179024FBF821B9E
:10368000930B089578941F921FB61F9211248F9365
:103690009F93AF93BF938091760290917702A09110
:1036A0007802B09179020196A11DB11D8093760236
:1036B00090937702A0937802B0937902BF91AF9173
:1036C0009F918F911F901FBE1F90189587E797E7D6
:1036D000909301088093000888E19AE00FB6F8946F
:1036E000A895809360000FBE90936000FFCF88E1A3
:1036F0009AE00FB6F894A895809360000FBE90935F
:103700006000FFCF80916A02089508959C0184E0D3
:103710008093E9009FEF8091E800915085FD06C0FD
:1037200085ED8A95F1F700009111F5CF8091E800C1
:1037300085FF0CC050E040E066E070E0C9010E94E7
:103740002D1E8091E8008E778093E8000895CF9336
:10375000DF93EC01809116018823B1F180916C0216
:1037600087FF32C060E284E08093E9008FEF9091A0
:10377000E800815095FD06C095ED9A95F1F700009F
:103780008111F5CF8091E80085FF1BC08091160163
:1037900070E050E040E0811104C050E040E068E09B
:1037A00070E0CE010E942D1E8091E8008E778093FC
:1037B000E80080E2FE01AAE4B2E001900D928A9551
:1037C000E1F7DF91CF91089568E081E0CDCF80935C
:1037D0004702709349026093480280917E028430D0
:1037E000F9F48093E9008FEF9091E800815095FD06
:1037F00006C095ED9A95F1F700008111F5CF809103
:10380000E80085FF0DC050E040E063E070E087E431
:1038100092E00E942D1E8091E8008E778093E80050
:103820000895BC0184E00E94E71B0895BC0183E079
:103830000E94E71B0895CF93FC01603221F580912F
:103840007E02843001F5C091E900CF702091EC0038
:10385000922F917020FD90E8C92B82E08093E900BF
:103860008091E80080FF0CC050E040E060E270E032
:10387000CF010E942D1E8091E8008E778093E80092
:10388000CF70C093E900CF91089580917D0281119E
:1038900009C00E940C200E9469208091E20084608F
:1038A0008093E200089510927D0208950E948D1A7F
:1038B000089560917A0281E0611101C080E00E9468
:1038C000841A089590917E0281E0943009F080E09E
:1038D00060917A020E948A1A089542E061EC81E0C8
:1038E0000E94881F42E261EC84E00E94881F42E24D
:1038F00061EC82E00E94881F42E260EC83E00E945B
:10390000881F90917E0281E0943009F080E0609100
:103910007A020E947A1A089580918002833009F415
:1039200063C030F48130E1F1823009F4A0C0089521
:103930008A3009F48CC08B3009F471C0893009F0E9
:1039400052C080917F02813209F04DC08091830284
:1039500090918402009719F0029709F044C0809179
:10396000E800877F8093E8008091E80082FF37C0FD
:103970009091F3008091F200029731F48091F10070
:10398000813011F0863021F48091F10080936A0239
:103990008091E8008B778093E8000E94BC1F23C0D1
:1039A00080917F02813AF9F48091E800877F8093CB
:1039B000E8008091830290918402892B61F460E297
:1039C0008AE492E070E00E94CB1E8091E8008B7741
:1039D0008093E800089560E090E080E0F3CF80916C
:1039E0007E028111C1CF089580917F02813AD9F77B
:1039F0008091830290918402892BA9F78091E8003D
:103A0000877F8093E8008091E80080FFFCCF809161
:103A100016018093F1008091E8008E77BCCF8091F1
:103A20007F02813201F78091830290918402892B79
:103A3000D1F68091E800877F8093E8000E94BC1F48
:103A400080918102809316010E94AD0608958091B5
:103A50007F02813241F68091E800877F8093E80001
:103A60000E94BC1F8091820280936B020895809116
:103A70007F02813A09F0B7CF8091E800877F809379
:103A8000E8008091E80080FFFCCF80916B02C1CFFD
:103A900084B7877F84BF0FB6F894A89580916000A3
:103AA000886180936000109260000FBE80E890E013
:103AB0000FB6F89480936100909361000FBE0E944E
:103AC000931A08950E940C200E946920E2EEF0E013
:103AD00080818460808378940E94E82208958AE03F
:103AE00091E00E944419089580917E02853031F45E
:103AF00080917E02853019F00E940D1B08950E946E
:103B0000E21A80917C02882399F30E94A01A8823EC
:103B100079F30E94171E0E94AD06EACFA0E2B0E042
:103B2000E4E9FDE10C94342380917E02843009F5B0
:103B300083E08093E9008091E80082FF1AC08091C1
:103B4000E80090E085FF09C050E040E060E270E0EE
:103B5000CE0101960E947C1E91E08091E8008B7757
:103B60008093E800992329F060E2CE0101960E943B
:103B7000F213A096E2E00C9450230E94C01D089519
:103B8000292F33272330310521F168F42130310505
:103B900009F443C02230310509F444C090E080E0CC
:103BA00030E020E026C02132310551F122323105CA
:103BB000A9F76330710590F7FB01EE0FFF1FEC577B
:103BC000FE4F208131816F577E4FFB01808190E055
:103BD00010C099278130910581F0009729F0029754
:103BE000E9F6ECEDF1E002C0EEEFF1E0849190E057
:103BF0009F01FA01318320830895E0EFF1E0F6CFD1
:103C00006330710558F6660F771FFB01E657FE4FCC
:103C10002081318189E090E0ECCF82E190E02DE5D8
:103C200032E0E7CF8BE590E022E032E0E2CF80E1C6
:103C300089BD82E189BD09B400FEFDCF8091D80025
:103C40008F7D8093D8008091E00082608093E000B7
:103C50008091E00081FDFCCF0895AF92BF92CF929A
:103C6000DF92FF920F931F93CF93DF936C01EB01D1
:103C70008A010E94DB1FF82E811123C00115110556
:103C800039F0F80180819181C81BD90BC80ED91E6B
:103C9000B12CA12C2097A9F08091E80085FD22C0CD
:103CA0008091E8008E778093E80001151105A1F05E
:103CB000F80180819181A80EB91EB182A08285E0B1
:103CC000F82E8F2DDF91CF911F910F91FF90DF90F4
:103CD000CF90BF90AF9008950E94DB1F8823D1F250
:103CE000F82EEFCFF60181916F018093F1002197BB
:103CF000FFEFAF1ABF0ACECFAF92BF92CF92DF9243
:103D0000FF920F931F93CF93DF936C01EB018A0116
:103D10000E94DB1FF82E811123C00115110539F017
:103D2000F80180819181C81BD90BC80ED91EB12C16
:103D3000A12C2097A9F08091E80085FD22C08091F8
:103D4000E8008B778093E80001151105A1F0F801D8
:103D500080819181A80EB91EB182A08285E0F82EE3
:103D60008F2DDF91CF911F910F91FF90DF90CF901A
:103D7000BF90AF9008950E94DB1F8823D1F2F82EE8
:103D8000EFCF8091F100F60181936F012197FFEF52
:103D9000AF1ABF0ACECFFC018091850290918602B6
:103DA00086179707A0F06115710529F49091E80036
:103DB0009E779093E80090E06115710551F49111A0
:103DC00008C08091E80082FF34C080E00895BC0103
:103DD000F2CF80917E028823C1F18530C1F18091BC
:103DE000E80083FD30C08091E80082FDEACF809139
:103DF000E80080FFE1CF8091F3002091F200382F9E
:103E00006115710519F02830310558F091E028301E
:103E1000310509F090E02091E8002E772093E8002A
:103E2000CBCF81918093F100615071092F5F3F4F9B
:103E3000E7CF80917E02882341F0853041F0809168
:103E4000E80083FFBECF81E0089582E0089583E01B
:103E50000895FC018091850290918602861797074C
:103E6000A0F06115710529F48091E8008E778093A8
:103E7000E80090E06115710551F4911108C080913E
:103E8000E80082FF35C080E00895BC01F2CF809148
:103E90007E028823C9F18530C9F18091E80083FD55
:103EA00031C08091E80082FDEACF8091E80080FF78
:103EB000E1CF8091F3002091F200382F6115710558
:103EC00019F02830310558F091E02830310509F01B
:103ED00090E08091E8008E778093E800CBCF8491CA
:103EE0008093F1003196615071092F5F3F4FE6CF0B
:103EF00080917E02882341F0853041F08091E80076
:103F000083FFBDCF81E0089582E0089583E00895A6
:103F1000982F973028F08F708093E90081E0089502
:103F20009093E900242F762F50E0981731F070918C
:103F3000EC002091ED005091F00021FD02C09F5F48
:103F4000E8CF3091EB003E7F3093EB003091ED00F5
:103F50003D7F3093ED003091EB0031603093EB000A
:103F60007093EC002093ED005093F0002091EE0050
:103F700027FDE5CF80E0089580917F0287FF13C081
:103F80008091E80082FF06C08091E8008B778093E3
:103F9000E80004C080917E028111F2CF08958091E3
:103FA0007E028823D9F38091E80080FFF8CF8091CA
:103FB000E8008E77ECCF2091E4003091E50095E6A3
:103FC000A9012091EC00822F817020FF06C0809112
:103FD000E80080FF06C080E008952091E80022FDFF
:103FE0001AC080917E02882389F0853089F0809103
:103FF000EB0085FD0FC02091E4003091E5004217F1
:104000005307F9F29150E1F684E0089582E00895B3
:1040100083E0089581E008950E947B200E94832020
:10402000E0EEF0E0808181608083E8EDF0E0808167
:104030008F77808319BCA7EDB0E08C918E7F8C9335
:1040400080818F7E808310927D0208950F931F934D
:10405000CF93DF930E947B200E948320C8EDD0E0A5
:1040600088818F77888388818068888388818F7D25
:10407000888319BC10927E0210927A0210927C0200
:1040800010927B0200EE10E0F80180818B7F80832C
:1040900088818160888342E060E080E00E94881F20
:1040A000E1EEF0E080818E7F8083E2EEF0E08081BF
:1040B00081608083808188608083F80180818E7F29
:1040C0008083888180618883DF91CF911F910F91D8
:1040D0000895E8EDF0E080818F7E8083E7EDF0E0E9
:1040E00080818160808384E082BF81E080937D0253
:1040F0000E9426200895E8EDF0E080818E7F808385
:104100001092E20008951092DA001092E1000895F2
:104110001F920F920FB60F9211242F933F934F933C
:104120005F936F937F938F939F93AF93BF93EF931F
:10413000FF938091E10082FF0BC08091E20082FF3B
:1041400007C08091E1008B7F8093E1000E94E7220D
:104150008091DA0080FF19C08091D80080FF15C0DF
:104160008091DA008E7F8093DA008091D90080FF01
:1041700096C080E189BD82E189BD09B400FEFDCF12
:1041800081E080937E020E94451C8091E10080FFC7
:1041900019C08091E20080FF15C08091E2008E7FFF
:1041A0008093E2008091E20080618093E200809140
:1041B000D80080628093D80019BC85E080937E028D
:1041C0000E94591C8091E10084FF2BC08091E20085
:1041D00084FF27C080E189BD82E189BD89B5982F20
:1041E000917080FFFBCF8091D8008F7D8093D800A5
:1041F0008091E1008F7E8093E1008091E2008F7ECC
:104200008093E2008091E20081608093E2008091DF
:104210007A02882309F449C084E080937E020E94D8
:10422000621C8091E10083FF29C08091E20083FF3E
:1042300025C08091E100877F8093E10082E0809338
:104240007E0210927A028091E1008E7F8093E100DD
:104250008091E2008E7F8093E2008091E200806195
:104260008093E20042E060E080E00E94881F80913D
:10427000F00088608093F0000E94561CFF91EF913F
:10428000BF91AF919F918F917F916F915F914F916E
:104290003F912F910F900FBE0F901F90189519BC52
:1042A00010927E020E94531C70CF8091E30087FD24
:1042B00093E090937E02B3CF1F920F920FB60F92AE
:1042C00011242F933F934F935F936F937F938F931B
:1042D0009F93AF93BF93CF93DF93EF93FF93D091CF
:1042E000E900DF708091EC00C82FC17080FDC0E84C
:1042F0001092E9008091F000877F8093F00078941D
:104300000E94A0211092E9008091F00088608093C3
:10431000F000CD2BCF70C093E900FF91EF91DF91BA
:10432000CF91BF91AF919F918F917F916F915F914D
:104330004F913F912F910F900FBE0F901F901895A6
:10434000AAE2B0E0E6EAF1E20C9433238FE792E0D0
:104350002091F100FC012193CF01F2E087389F0703
:10436000B9F70E948C1C8091E80083FF1EC18091E8
:104370007F02909180029A3008F017C1E92FF0E097
:10438000E851FC4D0C941723803899F0823809F0DD
:104390000CC1809183028F70873008F006C1809332
:1043A000E9008091EB0085FB882780F91092E900F5
:1043B00006C080917B0290917C0291118260909165
:1043C000E800977F9093E8008093F1001092F1004D
:1043D0008091E8008E77E5C0882309F4D3C082304D
:1043E00009F0E3C0809181028111D6C080918302DF
:1043F0008F702FEF280F263008F0D7C08093E90088
:104400002091EB0020FFC8C0933031F48091EB0085
:1044100080628093EB00C0C09091EB00906190931C
:10442000EB0021E030E001C0220F8A95EAF72093EB
:10443000EA001092EA008091EB008860EACF8111D7
:10444000B4C0109181021F778091E3008078812BA6
:104450008093E3008091E800877F8093E8000E94CA
:10446000BC1F8091E80080FFFCCF8091E300806852
:104470008093E30082E0111183E080937E0295C077
:104480008058823008F091C0809181029091820220
:104490008C3D23E09207A1F583E08A838AE2898339
:1044A0004FB7F894DE01139620E03EE051E2E32F8F
:1044B000F0E050935700E49120FF03C0E295EF70C5
:1044C0003F5FEF708E2F90E0EA30C0F0C7968D937B
:1044D0009D932F5F243159F74FBF8091E800877F6C
:1044E0008093E8006AE270E0CE0101960E94CB1E44
:1044F0008091E8008B778093E80057C0C096E7CFA3
:104500006091830270918402AE014F5F5F4F0E9401
:10451000BD1DBC01892B09F448C09091E800977F2C
:104520009093E80089819A810E94291FE1CF803809
:10453000E1F58091E800877F8093E80080917A021E
:104540008093F10045CF811130C09091810292306B
:1045500060F58091E800877F8093E80090937A026D
:104560000E94BC1F80917A02882311F084E005C06C
:104570008091E30087FDFACF81E080937E020E9464
:104580006D1C13C080918102813079F481E09330F9
:1045900009F080E080937C021092E9008091E800AD
:1045A000877F8093E8000E94BC1F8091E80083FF12
:1045B0000AC08091E800877F8093E8008091EB003B
:1045C00080628093EB00AA96E3E00C944F23089559
:1045D000CF9380917E028823A1F0C091E900CF7033
:1045E0009091EC00892F817090FD80E8C82B10928B
:1045F000E9008091E80083FD0E94A021CF70C09364
:10460000E900CF91089597FB072E16F4009407D088
:1046100077FD09D00E945B2307FC05D03EF49095FE
:1046200081959F4F0895709561957F4F0895EE0F86
:10463000FF1F0590F491E02D0994692796276927BB
:1046400078278727782708952F923F924F925F927D
:104650006F927F928F929F92AF92BF92CF92DF9292
:10466000EF92FF920F931F93CF93DF93CDB7DEB7F7
:10467000CA1BDB0B0FB6F894DEBF0FBECDBF09948B
:104680002A88398848885F846E847D848C849B84E2
:10469000AA84B984C884DF80EE80FD800C811B81F0
:1046A000AA81B981CE0FD11D0FB6F894DEBF0FBE1F
:1046B000CDBFED010895AA1BBB1B51E107C0AA1F86
:1046C000BB1FA617B70710F0A61BB70B881F991FB3
:1046D0005A95A9F780959095BC01CD010895FB01ED
:1046E000DC0104C08D910190801921F441505040AB
:1046F000C8F7881B990B0895FB01DC0102C00190EB
:104700000D9241505040D8F70895F999FECF92BDCF
:1047100081BDF89A992780B50895A8E1B0E042E0FC
:1047200050E00C94B923262FF999FECF92BD81BD9C
:10473000F89A019700B4021639F01FBA20BD0FB6DF
:10474000F894FA9AF99A0FBE08950396272F0E94BB
:1047500094230E949323252F0E949423242F0C94AA
:1047600094230196272F0E9494230C949323DC0119
:10477000CB01FC01F999FECF06C0F2BDE1BDF89A6C
:10478000319600B40D9241505040B8F70895F89416
:10479000FFCFA204A204D304D30460057C05020564
:1047A00002058705EE05FD05FD05041410143714F8
:1047B00043144E1459145C145C145C145C145C14A3
:1047C0005F1463146B147814851488148B14981474
:1047D000C421EC21D522EC21D5221F224022D52252
:0447E0009722A32257
:1047E400FA01280850011E0A1401821BA71B861B0C
:1047F400161C111C851B01E200E900EA00B500B695
:1048040000B700CD008301CC008A019201940121FC
:1048140002230224022502260227022A02B300B43C
:10482400006F007000818283E200E900EA00B500B5
:10483400B600B700CD008301CC008A019201940137
:104844002102230224022502260227022A02B3009F
:10485400B4006F007000818283F4F5F6F7939291AF
:10486400904022B647036F02910214022D024D02BA
:00000001FF
